:100000000C946A020C9487020C9487020C94870269
:100010000C9487020C9487020C9487020C9487023C
:100020000C9487020C9487020C94520E0C94940D3D
:100030000C94FD1A0C9487020C9487020C9487028E
:100040000C9487020C9487020C9487020C9487020C
:100050000C9487020C94BC1A0C9487020C948702AF
:100060000C9487020C9487020C9487020C948702EC
:100070000C9487020C9487020C9487020C948702DC
:100080000C9487020C9487020C9487020C948702CC
:100090000C9487020C9487020C9487020C948702BC
:1000A0000C9487020C9487020C948702B803BD035A
:1000B000C703BB03C003C503C3034A05BE055205FE
:1000C0001C05200556052305590564052E05B405B4
:1000D0003205680536056C0596053A057005A005DC
:1000E00040057605800527055D052A05600545055F
:1000F0007B058C05AC05AE0518054E05C705B80691
:10010000B806EB06EB0668077E087E087E088607C1
:10011000FA070B080B08A00BC70B7C0DC70B7C0D57
:10012000130C360C7C0D370D470D0000000000004D
:1001300000000000000000000000000000000000BF
:1001400000000000000000000000000000007E0F22
:1001500000D4FFFFFFC7000000780000000000008F
:1001600000002A2B28000000000000000000000012
:10017000000000000029000000002C1E3420212275
:1001800024342627252E362D3738271E1F202122DE
:10019000232425263333362E37381F040506070857
:1001A000090A0B0C0D0E0F10111213141516171847
:1001B000191A1B1C1D2F3130232D35040506070885
:1001C000090A0B0C0D0E0F10111213141516171827
:1001D000191A1B1C1D2F3130354C0102E00101049E
:1001E0000103E00005010980A101850319012AB777
:1001F00000150126B700950175108100C0050C0996
:1002000001A101850419012AA002150126A0029569
:100210000175108100C005010906A10185060507C9
:1002200019E029E7150025019508750181020507E8
:10023000190029EF1500250195F0750181020508C7
:100240001901290595057501910295017503910123
:10025000C00660FF0961A1010962150026FF009533
:1002600020750881020963150026FF009520750896
:100270009102C005010906A101050719E029E7154A
:100280000025019508750181029501750881010518
:1002900007190029FF150026FF0095067508810043
:1002A000050819012905150025019505750191021B
:1002B000950175039101C009025B00030100A0FADA
:1002C00009040000010301010009211101000122BC
:1002D000440007058103080001090401000203002E
:1002E00000000921110100012222000705820320DC
:1002F00000010705030320000109040200010300B7
:100300000000092111010001226D0007058403206E
:100310000001120100020000000897327449000138
:100320000102030118036E006D004C006E005100C5
:100330002F0030006700330062004E0000001603FB
:100340004500720067006F0064006F0078002000B5
:1003500045005A00000028035A00530041002000C5
:1003600054006500630068006E006F006C006F0051
:100370006700790020004C006100620073000000FB
:100380000403090435002B002900E100E00000000F
:100390001E00140004001D003100E0001F001A00C0
:1003A00016001B0050002A0020000800072206004B
:1003B0004F002C002100150009211900E3284E00F0
:1003C000220017000A00050000002D042F022F0054
:1003D0000000260200004B0030023000000027021F
:1003E0000000450023001C000B0011000000460027
:1003F000240018000D3110005200440025000C00AC
:100400000E22360051002800260012000F0037008F
:100410003100037E27001300330038000100E400A0
:100420002E002D003400E50081520000290001005B
:1004300001000100010000003A000100010001007C
:10044000010001003B00010001000100010001006A
:100450003C00010001000100010001003D0001001D
:1004600001000100010001003E0001000100010047
:100470000000010001000100000001000000010077
:100480000100330000003302000001003F00520071
:10049000510024020000010040000100330001006F
:1004A000010001004100010033020100370001009A
:1004B0004200010001000100270001004300250265
:1004C0002E0231002E000100010001000100010098
:1004D0000100000011241FBECFEFDAE0DEBFCDBF68
:1004E00011E0A0E0B1E0E2EAFCE302C005900D9269
:1004F000A438B107D9F722E0A4E8B1E001C01D9209
:10050000AF39B207E1F70E945C0F0C944F1E0C94B8
:100510000000982F92959F7019F0892F24E001C058
:1005200020E0982F9695969511F02E5F892F982FA1
:10053000969509F02F5F822F089590E0FC01EF5D02
:10054000FE4F208121111AC0F894FC01ED5EFE4F90
:100550008081E82FE295EF70F0E031A1282F2F7015
:1005600081E090E001C0880F2A95EAF7982F9095D6
:10057000932391A392A1892B82A378940895A6E056
:10058000B0E0E5ECF2E00C94BC1D49835A8349814C
:100590005A81992361F0222351F0CA010E946E18FA
:1005A000182F682F89819A810E94DE1804C0CA0121
:1005B0000E94AA18182F69817A81812F0E94141431
:1005C0002696E3E00C94D81DA4E3B0E0EAEEF2E056
:1005D0000C94B91D4FA758AB69AB7AAB8BAB9CABF6
:1005E000192F911110921902DE01989687E0FD01F2
:1005F00011928A95E9F786E0FE01BF9601900D926F
:100600008A95E1F7EFA4F8A80BA90023E9F021E00F
:10061000A7016AA57BA5C8010E94BF028091D301F2
:10062000882391F0111102C087E001C086E0898320
:10063000EA82FB828EEF8C8340E250E0BE016F5F66
:100640007F4F82E00E943A1AE8A6F9A60CA71DA7E0
:1006500087E0FE01B896DE01919601900D928A9591
:10066000E1F7CE0181960E94381681112CC087E0F7
:10067000FE01B196DE01119601900D928A95E1F787
:100680006DA1662301F12091DD0130E0C9010196E1
:10069000877099274091160250E08417950761F101
:1006A0006D8397E0929FD001939FB00D1124A252C9
:1006B000BE4FFE01319601900D929A95E1F780931D
:1006C000DD010E94D51517E0809116029091DD01A1
:1006D0008917F9F0189FC001112482529E4F0E9481
:1006E00038168823B1F08091160290E00196877049
:1006F000992780931602E8CF0E9457191092DD01C6
:1007000010921602E6EDF1E087E0DF011D928A9576
:10071000E9F7E496E6E00C94D51D27982F98089504
:1007200026982E98089525982D9808952F9A089523
:100730002E9A08952D9A0895A0E2B0E0E2EAF3E03F
:100740000C94BB1D082F0E948902182F5E980E94EE
:1007500093030E9490030E948D03812F90E0FC017F
:100760003197E730F105A8F4EA5AFF4F0C943C1E8C
:100770000E949A030EC00E949A030E94980309C027
:100780000E949A0304C00E949A030E9498030E9448
:1007900096038091D3018823D9F08091870118179F
:1007A000B9F0109387018FE39CE90197F1F700C03E
:1007B000000085E08983809187018A838EEF8B8397
:1007C00040E250E0BE016F5F7F4F82E00E943A1A24
:1007D000802FA096E4E00C94D71DA0E0B0E0E3EFFA
:1007E000F3E00C94B11DFC018481882309F4BAC4A0
:1007F0008F0121E0408151816281738195810E9446
:10080000BF027C01F8018581E114FEE7FF06D1F506
:10081000882309F4EDC09091B10181E0890F8770C0
:10082000987F853020F4892B8093B10102C090938A
:10083000B1018091B10187702FEF829FC001112417
:10084000959587959595879599279093890080939D
:10085000880090938B0080938A0090938D00809302
:100860008C004091B1015091B2016091B30170913F
:10087000B4018FE090E00E941A1E8091B0010E94A6
:100880009C03B6C033E0E3163EE7F30609F0B0C0C0
:10089000882309F4ADC0CAEDD1E02AE0622EFE0142
:1008A0002491222309F4A4C0213009F044C03196D8
:1008B0008491813059F42296FE018491893319F490
:1008C00060E570E08FC060E070E08CC0823031F491
:1008D0002296FE0184910E94B41988C0833031F4BD
:1008E0002296FE0184910E948A1980C0843009F00A
:1008F0007CC02296FE01249180E090E030E02053FD
:1009000031092A30310560F4689EA001699E500DBE
:100910001124C901840F951F2196FE012491EECF69
:10092000009709F463C0EFE9FFE03197F1F700C0E9
:1009300000000197F5CFE22FF0E0E65AFE4F7490E9
:10094000822F86958695869590E0FC01E65BFE4FAA
:10095000A4902770B12C022E02C0B594A7940A94DB
:10096000E2F7F1E0AF22BB24FC01E65CFE4F84908D
:10097000912C022E02C0959487940A94E2F731E0FC
:1009800083229924FC01E65DFE4FC490D12C02C065
:10099000D594C7942A95E2F781E0C822DD24A114FA
:1009A000B10419F081EE0E94B4198114910419F078
:1009B00086EE0E94B41960E070E0872D0E941F1A35
:1009C0008114910419F086EE0E948A19A114B104D1
:1009D00019F081EE0E948A19C114D10439F060E047
:1009E00070E08CE20E941F1A01C0EF01219657CFE0
:1009F000F8018581882309F45FC1C7019057839767
:100A000008F0DBC084E090E00E94F21D9093990210
:100A100080939802F701E150F047E232F10520F4AB
:100A2000E35AFF4F0C943C1E809198028160ACC049
:100A3000809199028860B4C0809198028260A4C0BD
:100A40008091980220C08091980288609DC080911A
:100A500099021EC0809199028260A2C08091980282
:100A6000806192C08091980280628EC080919802CD
:100A700080648AC00E94571980919802806884C05F
:100A800080919802886084607FC080919902826022
:100A9000816086C0809198028E7F76C08091990295
:100AA000877F7EC0809198028D7F6EC08091980272
:100AB00020C080919802877F67C0809199021EC0F4
:100AC000809199028D7F6CC0809198028F7E5CC06E
:100AD000809198028F7D58C0809198028F7B54C07E
:100AE0000E945719809198028F774EC0809198028A
:100AF000877F8B7F49C0809199028D7F8E7F50C008
:100B00008091980282FB222720F991E0922790FBA6
:100B100082F990FB83F938C080919902982F9095C3
:100B200091708E7F892B90FB81F93AC08091980259
:100B300086FB222720F991E0922790FB86F924C0BA
:100B40000E9457198091980287FB222720F991E093
:100B5000922790FB87F918C061E001C060E08EE049
:100B600090E00E94081E1EC08091980284FB2227FC
:100B700020F991E0922790FB84F906C080919802B9
:100B8000982F909590FB80F9809398020BC08091EC
:100B9000990283FB222720F991E0922790FB83F9A9
:100BA00080939902609198027091990284E090E09C
:100BB0000E94261E0E94571914C0F6E1EF16FCE7AA
:100BC000FF0609F5809142028A7A91E009F490E0EB
:100BD000909388018111BAC289E20E94541B0E943D
:100BE000551580911702877009F4BCC2F801858100
:100BF000882309F4B7C28091990282FFB3C282E0D0
:100C00000E94A715AFC2F3E0EF16FCE7FF06A1F1C3
:100C1000A0F4E1143CE7F30609F181E0E8168CE763
:100C2000F80609F04FC00E9457199FEFE4E3FCE07B
:100C30009150E040F040E1F72EC09BE5E9169CE7BB
:100C4000F906B1F1ECE5EE16ECE7FE0649F1FAE53E
:100C5000EF16FCE7FF06B1F581E02BC00E945719A3
:100C60002FEF34E38CE0215030408040E1F700C0AA
:100C700000000E948A1AB5CF6FEF7FEF80E090E00E
:100C80000E94261E0E9457192FEF34E38CE021505A
:100C900030408040E1F700C000000E947F1AA1CFE1
:100CA0008091990282FB882780F991E0892701C011
:100CB00080E00E94BE1506C026E1E2162CE7F2068F
:100CC00009F446C2F8018581C081D181882349F0A9
:100CD000CE010E946E18F82E682FCE010E94DE18F9
:100CE00004C0CE010E94AA18F82EBE018F2D0E94CA
:100CF00014140E943114F82EC92FC82EF801D58182
:100D0000E680E2949FE0E92280911702877001F16A
:100D1000DD23F1F08C2F807F803469F080E28F0D2D
:100D20008830B0F08C2F807E803229F4F1E0FF15FE
:100D300078F4EE2069F08091990282FF09C082E088
:100D40000E94A715809117028770DD24D39481112A
:100D5000D12CBC2EB2948FE0B8228B2D90E08C3039
:100D6000910508F0CBC1FC01E158FF4F0C943C1EEB
:100D70008C2F807FCF70882311F0C295C07FDD2338
:100D8000B9F0CC2309F4A8C180E28F0D883010F0AF
:100D9000C11006C090914202C92BC093420205C007
:100DA00090911902C92BC09319020E94551594C144
:100DB0008F2D0E948A19CC2309F4A0C180E28F0DE7
:100DC000883088F1CC2079F1C09590911902C9231F
:100DD000C09319022BC08C2F807FCF70803211F00E
:100DE000C295C07F8F2DCC2029F021E0C21609F4D6
:100DF0004CC055C08091990282FD1BC0DD2369F073
:100E0000CC2339F090914202C92BC09342020E9438
:100E1000551580E00E94B41971C180E00E948A19C2
:100E2000CC2309F46BC18C2F0E944E150E945515DE
:100E300065C1DD2381F0EE20B1F131E0E3125EC146
:100E4000909118028C2F8923C81709F457C1C92B18
:100E5000C093180253C1E11051C18C2F0E9479191F
:100E6000809118029C2F982329F09C2F909589231C
:100E700080931802209189018C2F822309F43EC1AE
:100E8000C0952C232093890139C1DD2329F081E00D
:100E90008E1508F433C107C0E11030C115C0DD2341
:100EA00031F0E11019C18C2F0E94801927C1EE206A
:100EB00059F0893309F01FC19FEFE7EEF3E091503D
:100EC000E040F040E1F715C18C2F0E94791916C15E
:100ED0008C2F86958695837019F0813061F00EC154
:100EE000DD2321F08F2D9C2F937002C080E090E0D5
:100EF0000E94B01B09C1DD2321F08F2D9C2F937020
:100F000002C080E090E00E948B1BFEC08C2F83709B
:100F1000A9F5D111F7C04F2D429546954770440F62
:100F2000440F8F2D8F7090E09C01042E01C0220F82
:100F30000A94EAF7F4FE08C08FE090E001C0880F41
:100F40004A95EAF7809501C080E0C695C695C370C2
:100F5000C23069F088F49091AF01C13019F0822B52
:100F6000892302C0922B892B0E943119CBC0822B7E
:100F70009091AF018927F8CF822BF6CFDD2319F0AE
:100F80008C2F817001C08695882309F4BBC04F2D3A
:100F9000429546954770440F440F8F2D8F7090E017
:100FA0009C01042E01C0220F0A94EAF7F4FE08C047
:100FB0008FE090E001C0880F4A95EAF7809501C064
:100FC00080E0C695C695C370C23059F078F4909110
:100FD000B001C13019F0822B892309C0922B892BD3
:100FE00006C0822B9091B001892701C0822B0E94FC
:100FF000131988C0CF70DD2339F08C2F0E9425197A
:101000008F2D0E9480197EC08F2D0E9479198C2F00
:101010000E94181977C08F2D22EFC21669F12C1586
:1010200038F030EFC31659F091EFC91601F150C0F6
:10103000E3EFCE1641F1F4EFCF16A9F049C0DD235E
:1010400069F0E1105BC0CF7181E090E001C0880FD2
:10105000CA95EAF79091B00189271FC021E02E15AB
:1010600008F44CC0F0CF8091990282FD19C0DD23B5
:1010700029F08C2F8F711FC0DD23D9F38C2F8F7136
:101080000E9418193BC0DD2339F0CF7181E001C007
:10109000880FCA95EAF701C080E00E9413192EC09C
:1010A000DD2361F08C2F8F7198E0899F90011124CE
:1010B0002360209317020E94251920C081E00E941E
:1010C000A715E1E0EE15D0F482E00E94A71516C046
:1010D000DD2321F0EE2069F28F2D9CCEEE2071F2FF
:1010E000893349F4FFEF27EE33E0F15020403040E0
:1010F000E1F700C000008F2D0E948A1988EF8B0D48
:10110000843010F40E94D51BDD20A9F080911702D5
:1011100080FD11C0F80115828695869586950E94FE
:101120002519C8010E94ED038091170286958695C6
:1011300086950E94181920E0F80140815181628152
:101140007381848195810E94BF020CC085E345CDE7
:1011500080918801811104C089E20E94261B3FCD45
:1011600085E3FBCFCDB7DEB7EEE00C94CD1DA0E25A
:10117000B0E0EDEBF8E00C94BD1D9FEF99838A83FE
:1011800040E250E0BE016F5F7F4F82E00E943A1A5A
:10119000A096E2E00C94D91DA1E0B0E0E2EDF8E009
:1011A0000C94BB1D8730F8F420910B0130910C0199
:1011B000232BD1F521E030E0A90102C0440F551FD7
:1011C0008A95E2F7CA01809589830AE010E0AE01B2
:1011D0004F5F5F4F62E180E40E94B21C90930C016C
:1011E00080930B0121C090E0FC01EF5DFE4F208158
:1011F00021111AC0F894FC01ED5EFE4F8081E82FAA
:10120000E295EF70F0E031A1282F2F7081E090E09F
:1012100001C0880F2A95EAF7932F982B91A392A1EA
:101220008095892382A378942196E4E00C94D71DBD
:101230000F931F93CF9308E211E0C7E0F80181916B
:101240008F01811103C08C2F0E949D02CF5FCE3091
:10125000A9F7CF911F910F910895A1E0B0E0E3E3CA
:10126000F9E00C94BB1D082F8730C8F480910B0166
:1012700090910C01892BE9F519820AE010E021E038
:1012800030E0AE014F5F5F4F63E180E40E94001DDC
:1012900090930C0180930B01898180952BC00E9453
:1012A000CC08ADE0B1E020E030E010E051E04D913D
:1012B000E42FE295EF70F0E080A190E04F7002C063
:1012C000959587954A95E2F780FD07C0852F022EF8
:1012D00001C0880F0A94EAF701C080E0182B2F5F45
:1012E0003F4F2630310519F7802F0E949D02812F34
:1012F00001C080E02196E4E00C94D71DCF93DF93EA
:10130000ADE0B1E043E151E061E070E0F8948D912F
:10131000E82FE295EF70F0E021A18F70EB0102C0A1
:10132000CC0FDD1F8A95E2F7CE019C2F909592237A
:1013300091A392A1892B82A378944A175B0731F776
:10134000DF91CF910895A2E0B0E0E9EAF9E00C94D2
:10135000BB1D80E290E090930C0180930B01809183
:10136000860181110EC00E94351C81E080938601A8
:101370002FEF83ED90E3215080409040E1F700C0D3
:10138000000019828FE38A830AE010E022E030E057
:10139000AE014F5F5F4F60E080E40E94B21C90930B
:1013A0000C0180930B01892B69F422E030E0AE013F
:1013B0004F5F5F4F6CE080E40E94B21C90930C0181
:1013C00080930B0180910B012296E4E00C94D71DD1
:1013D0008091990187FF11C08091E80082FD05C0CE
:1013E000809197018111F8CF11C08091E8008B772F
:1013F0000BC080919701882349F08091E80080FF1D
:10140000F8CF8091E8008E778093E8000895982FB8
:10141000973068F59093E900981739F07091EC00D7
:101420002091ED005091F00003C0242F762F50E062
:1014300021FD02C09F5FECCF3091EB003E7F3093E7
:10144000EB003091ED003D7F3093ED003091EB00EB
:1014500031603093EB007093EC002093ED005093DB
:10146000F0002091EE0027FDE5CF80E008958F7019
:101470008093E90081E0089520919F013091A001BF
:101480002617370748F06115710539F42091E800F7
:101490002E772093E80001C0B901FC0120E061151E
:1014A000710579F1809197018823F1F18530F1F18F
:1014B0008091E80083FD3CC08091E80082FD2EC051
:1014C0008091E80080FFEBCF2091F3008091F20043
:1014D00090E0922B6115710551F08830910538F438
:1014E00021912093F100615071090196F3CF21E021
:1014F000089709F020E08091E8008E778093E8005B
:10150000CECF2111CFCF0AC080919701882361F0FF
:10151000853061F08091E80083FD0AC08091E80089
:1015200082FFF2CF80E0089582E0089583E008957D
:1015300081E00895089543E050E0BC0184E00E94FA
:101540003A1A089540E250E0BC0184E00E943A1A41
:101550000895CF93DF93EC0148E050E0BC0181E0B7
:101560000E943A1A88E0FE01ADE8B1E001900D92C8
:101570008A95E1F7DF91CF910895AAE2B0E0E3EC1C
:10158000FAE00C94BC1DE9E9F1E081EA91E02091D8
:10159000F10021938E179F07D1F780919A01833034
:1015A00009F463C030F4813071F0823009F49DC0D9
:1015B000B4C08A3009F489C08B3009F46EC0893018
:1015C00009F0ABC020C080919901813A09F0A5C013
:1015D0008091E800877F8093E80080919D01909141
:1015E0009E01892B21F468E08DE891E003C060E062
:1015F00080E090E070E00E943C0A8091E8008B77E8
:101600008093E8008AC080919901813209F085C0F9
:1016100080919D0190919E01009719F0029709F029
:101620007CC08091E800877F8093E8008091E8008B
:1016300082FD05C0809197018111F8CF6EC0209185
:10164000F3008091F20090E0922B029731F48091A8
:10165000F100813011F0863021F48091F100809307
:101660008C018091E8008B7754C080919901813A78
:1016700009F053C080919D0190919E01892B09F042
:101680004CC08091E800877F8093E8008091E8005B
:1016900080FFFCCF8091000137C080919901813299
:1016A000E1F580919D0190919E01892BB1F580918A
:1016B000E800877F8093E8000E94E80980919B0101
:1016C000809300010E94571928C0809199018132AE
:1016D00021F58091E800877F8093E8000E94E80967
:1016E00080919C0180938B0118C080919901813A6F
:1016F000A1F48091E800877F8093E8008091E80062
:1017000080FFFCCF80918B018093F1008091E800F5
:101710008E778093E8000E94E8098091E80083FFBB
:10172000EBC18091990190919A01492F50E04A3084
:10173000510508F0E1C1FA01E557FF4F0C943C1E3A
:10174000803821F0823809F0D7C108C08091950116
:1017500090919601992389F082600FC080919D013C
:101760008F70873008F0C8C18093E9008091EB004A
:1017700085FB882780F91092E9009091E800977F17
:101780009093E8008093F1001092F1007CC1282F23
:101790002D7F09F0B1C1882319F0823061F0ACC10E
:1017A00080919B01813009F0A7C1933009F080E05E
:1017B000809396012EC080919B0181112AC0809157
:1017C0009D018F702FEF280F263008F095C1809370
:1017D000E9002091EB0020FF1CC0933021F48091A0
:1017E000EB00806214C09091EB0090619093EB004D
:1017F00021E030E0A90102C0440F551F8A95E2F7AD
:101800004093EA001092EA008091EB008860809398
:10181000EB001092E9008091E800877F8093E80058
:101820000E94E80969C1811167C110919B011F776E
:101830008091E3008078812B8093E3008091E80021
:10184000877F8093E8000E94E8098091E80080FF8C
:10185000FCCF8091E30080688093E300111102C007
:1018600082E001C083E08093970146C180588230B6
:1018700008F042C120919B0130919C012C3D53E026
:10188000350779F583E08A838AE289834FB7F89434
:10189000DE01139620E03EE051E2E32FF0E05093AA
:1018A0005700E49120FF03C0E295EF703F5FEF70B7
:1018B0008E2F90E0EA3010F0C79601C0C0968D934D
:1018C0009D932F5F243149F74FBF8091E800877FB8
:1018D0008093E8006AE270E0CE0101960E943C0A23
:1018E000C0C080919D0190919E01432F55274330A8
:1018F0005105B1F068F44130510509F40CC1423092
:10190000510509F0F9C08BE590E0E7EBF2E057C034
:101910004132510589F14232510509F43CC0ECC015
:10192000C901992781309105B9F070F08230910595
:10193000D9F0039709F0E0C0E4E2F3E0E4918E2FE0
:1019400090E0E4E2F3E038C0E0E8F3E0E4918E2FC9
:1019500090E0E0E8F3E030C0E6E5F3E0E4918E2FBC
:1019600090E0E6E5F3E028C0EEE3F3E0E4918E2FAB
:1019700090E0EEE3F3E020C08330910508F0BCC0B6
:10198000880F991FFC01E85CFE4F0190F081E02D6B
:1019900089E090E014C08330910508F0ADC0FC01EF
:1019A000EE0FFF1FEE5CFE4F0190F081E02DDC0199
:1019B000A15DBE4F8C9190E0009709F49DC02091ED
:1019C000E800277F2093E80020919F013091A0013B
:1019D0002817390708F4C90140E0009789F12091E0
:1019E0009701222309F43DC02530D9F12091E80068
:1019F00023FD37C02091E80022FD2FC02091E80090
:101A000020FFEBCF4091F3002091F20030E0342B27
:101A1000009759F02830310540F444914093F1008B
:101A2000319601972F5F3F4FF3CF41E028303105CA
:101A300009F040E02091E8002E772093E800CDCF18
:101A40004111CDCF0AC080919701882351F0853094
:101A500041F08091E80083FD04C08091E80082FF9E
:101A6000F2CF8091E8008B778093E80045C0803802
:101A700009F042C08091E800877F8093E800809160
:101A800098018093F1008091E8008E77C7CE811194
:101A900033C080919B0190919C019927029764F536
:101AA0008091E800877F8093E80010919B0110935C
:101AB00098010E94E809111106C08091E30087FD9A
:101AC00002C081E001C084E08093970142E061ECB4
:101AD00081E00E94070A42E261EC84E00E94070A6A
:101AE00042E261EC82E00E94070A42E260EC83E09D
:101AF0000E94070A809197018091E80083FF10C03F
:101B00008091E800877F8093E8008091EB008062FD
:101B10008093EB0005C082E190E0E2E1F3E04FCF7B
:101B2000AA96E3E00C94D81D1F920F920FB60F9265
:101B300011242F933F934F935F936F937F938F93D2
:101B40009F93AF93BF93CF93DF93EF93FF93C09196
:101B5000E900CF708091EC00D82FD17080FDD0E8E3
:101B60001092E9008091F000877F8093F0007894D4
:101B70000E94BD0A1092E9008091F0008860809375
:101B8000F000CD2BCF70C093E900FF91EF91DF9172
:101B9000CF91BF91AF919F918F917F916F915F9105
:101BA0004F913F912F910F900FBE0F901F9018955E
:101BB000E8EDF0E080818E7F80831092E200109249
:101BC000DA001092E100A0EEB0E08C9181608C937D
:101BD00080818F77808319BCA7EDB0E08C918E7FD8
:101BE0008C9380818F7E808310928A010895A0E07B
:101BF000B0E0EDEFFDE00C94B71DC8EDD0E08881BA
:101C00008F7E8883E7EDF0E080818160808384E0CF
:101C100082BF81E080938A0188818E7F888302EE73
:101C200010E0F80110821092DA0081EEC82ED12C5B
:101C3000F601108288818F77888388818068888305
:101C400088818F7D888319BC10929701109298012A
:101C5000109296011092950190EEE92EF12CF70169
:101C600080818B7F808388818160888342E060E00F
:101C700080E00E94070AF60180818E7F8083F80150
:101C8000808181608083808188608083F70180818A
:101C90008E7F8083888180618883CDB7DEB7E8E05E
:101CA0000C94D31D1F920F920FB60F9211242F93F5
:101CB0003F934F935F936F937F938F939F93AF93D4
:101CC000BF93EF93FF938091E10082FF09C0809161
:101CD000E20082FF05C08091E1008B7F8093E100EC
:101CE0008091DA0080FF2AC08091D80080FF26C052
:101CF0008091DA008E7F8093DA008091D90080FF96
:101D000018C080E189BD82E189BD09B400FEFDCF24
:101D100081E08093970180918A0181110FC00E9418
:101D2000D80D0E94F70D8091E20084608093E2005C
:101D300005C019BC1092970110928A018091E100B0
:101D400080FF17C08091E20080FF13C08091E20005
:101D50008E7F8093E2008091E20080618093E200B8
:101D60008091D80080628093D80019BC85E0809370
:101D700097018091E10084FF30C08091E20084FFF0
:101D80002CC080E189BD82E189BD09B400FEFDCF90
:101D90008091D8008F7D8093D8008091E1008F7E64
:101DA0008093E1008091E2008F7E8093E200809139
:101DB000E20081608093E20080919801882311F015
:101DC00084E007C08091E30087FD02C081E001C08C
:101DD00083E080939701809197018091E10083FFD8
:101DE00027C08091E20083FF23C08091E100877FBC
:101DF0008093E10082E08093970110929801809196
:101E0000E1008E7F8093E1008091E2008E7F8093DD
:101E1000E2008091E20080618093E20042E060E0B5
:101E200080E00E94070A8091F00088608093F000B3
:101E3000FF91EF91BF91AF919F918F917F916F91A2
:101E40005F914F913F912F910F900FBE0F901F9078
:101E500018952091E4003091E50095E64091EC0062
:101E6000842F817040FF23C08091E80080FD1DC059
:101E700080919701882399F0853099F08091EB004B
:101E800085FD11C04091E4005091E500241735070D
:101E900029F3915011F09A01E1CF84E0089582E096
:101EA000089583E0089581E0089580E008954091C9
:101EB000E80042FFDDCF0895A6E4B0E0E2E6FFE0EF
:101EC0000C94B11D85B7806885BF85B7806885BFD4
:101ED00084B7877F84BF0FB6F894A895809160007F
:101EE000886180936000109260000FBE90E080E8EF
:101EF0000FB6F89480936100909361000FBE81EE5D
:101F000092E190938501809384010E94D80D0E94F4
:101F1000F70D8091E20084608093E20078948091D4
:101F200097018823A1F01091E9001F709091EC00B7
:101F3000892F817090FD80E8182B1092E900809124
:101F4000E80083FD0E94BD0A1F701093E90082E043
:101F500084BD93E095BD9AEF97BD80936E000E947B
:101F6000A30990E090930C0180930B010E94180943
:101F70000E947E09E1EAF1E08FEA91E0A5EBB1E091
:101F800011921D928E179F07D9F780E090E00E9472
:101F9000F21D853E9E4F09F46EC065EE7EEF80E037
:101FA00090E00E94261E60E082E090E00E94081E01
:101FB00081E08093AF0161E083E090E00E94081E21
:101FC00060E074E184E090E00E94261E60E086E01C
:101FD00090E00E94081E60E087E090E00E94081EEA
:101FE00040E050E0BA0188E090E00E941A1E60E0F4
:101FF00083E290E00E94081E60E08CE090E00E9486
:10200000081E60E08DE090E00E94081E19821A828E
:102010001B821C821D821E821F82188648E050E0AF
:1020200067E170E0CE0101960E94F81D40E050E0AB
:10203000BA018FE190E00E941A1E1092B101109235
:10204000B2011092B3011092B40184E08093B10107
:102050004091B1015091B2016091B3017091B4010E
:102060008FE090E00E941A1E40E050E0BA0183E148
:1020700090E00E941A1E82E090E00E94E41D80938E
:10208000C30184E090E00E94F21D90939902809336
:1020900098020E94E3178FEF93EFE1E081509040A8
:1020A000E040E1F700C000000E94E3178091B50115
:1020B00080FF08C06FEF7FEF80E090E00E94261E57
:1020C0000E948A1A83E090E00E94E41D0E94311968
:1020D0008091B0010E949C0389EA8093800089E08E
:1020E0008093810024982C983F98479A54985C9A42
:1020F00055985D9A6E98769A259A269A279A569AB6
:102100008FE090E00E94EC1D6093B1017093B201EA
:102110008093B3019093B40167701FEF169FB001D5
:102120001124759567957595679577277093890044
:102130006093880070938B0060938A0070938D0089
:1021400060938C005E980E9493030E9490030E940B
:102150008D038FEF90E09093890080938800909397
:102160008B0080938A0090938D0080938C000E9456
:102170009A03FFEF20E782E0F15020408040E1F732
:1021800000C000000E9498039FEFE0E7F2E091504A
:10219000E040F040E1F700C000000E9496032FEFFE
:1021A00080E792E0215080409040E1F700C00000BD
:1021B0000E949303EFEFF0E722E0E150F04020406F
:1021C000E1F700C000000E9490038FEF90E7E2E08B
:1021D00081509040E040E1F700C000000E948D0374
:1021E0008091B1018770189FC00111249595879542
:1021F000959587959927909389008093880090936F
:102200008B0080938A0090938D0080938C005E9861
:102210000E9493030E9490030E948D0381E091E04D
:10222000909395028093940278E1E72EF12C8091AF
:102230009701853009F057C020E4B22E03EC11E07D
:1022400030E1C32E42E1D42E80919701853009F010
:1022500046C080919701843009F110929A020FB61E
:10226000F894A895E09260000FBEB092600083B72A
:10227000817F846083BF83B7816083BF78948895B2
:1022800083B78E7F83BF0FB6F894A89580916000C6
:10229000886180936000109260000FBE809196016B
:1022A000882391F20E94A30990E090930C018093FF
:1022B0000B010E9418090E947E09E5EBF1E01192E2
:1022C0000E171F07E1F70E94E317E5EBF1E081919C
:1022D000811161C121E0E33CF207C9F7B5CF0E944B
:1022E00057190E94D51B0E94E31794ECC92E91E068
:1022F000D92EA5EBB1E0F60191918D91892791E05E
:10230000E23DF90719F08823B9F305C0811103C034
:102310000E94BF1754C085EB882E81E0982E10E0F4
:10232000F40171904F01F601A080A724B1F100E003
:10233000BB24B394662463948A2D8B2141F12296A9
:102340000FAF229723961FAF23970E94F11A25966D
:102350009FAF8EAF259726966FAE269791E0872D7B
:102360008B2109F490E027969FAF279722964FADD7
:10237000229723965FAD239724966FAD24972596D9
:102380007FAD259726968FAD26970E94E4020F5FBA
:10239000BB0C063089F6F60170821F5FFFEFCF1A83
:1023A000DF0A1E3009F0BCCF8FB7F89440919B0232
:1023B00050919C0260919D0270919E028FBF0E947D
:1023C000D51B9091D201891769F08093D2018FB704
:1023D000F89440919B0250919C0260919D027091F3
:1023E0009E028FBF80919701843009F020CF83E057
:1023F0008093E9008091E80082FF19CF8091E80086
:1024000085FF22C00E94290F81111CC000E210E04C
:102410006E0121E2C20ED11C08C08091F100F601CC
:1024200081936F010150110969F08091E80085FDE9
:10243000F4CF8091E8008B778093E8000E94290F09
:10244000882399F391E001C090E08091E8008B77B8
:102450008093E800992309F4EACE89A1863009F433
:1024600079C0B0F4823009F4E2CE60F4882329F117
:10247000813009F08CC08093D30184E089838EEF92
:102480008A837CC0843031F1853009F463C07FC019
:10249000893009F45FC030F4873099F1883009F44D
:1024A00059C075C08A3009F457C08E3F09F06FC01B
:1024B000898394E09A838B8361C019828CE0EEE378
:1024C000F1E0DE01129601900D928A95E1F78EEF10
:1024D0008D8754C08091D301882309F4A8CE8AA1A6
:1024E000811104C08BA10E941819A1CE81E090E057
:1024F0000BA002C0880F991F0A94E2F70E941319DB
:1025000096CE81E08093D5018AA18230C1F000F59A
:10251000882319F0813051F01BC08BA1882319F05A
:102520000E949A0384CE0E94930381CE8BA18823BC
:1025300019F00E9498037BCE0E94900378CE8BA165
:10254000882319F00E94960372CE0E948D036FCEED
:1025500085E01EC084E01CC08AA111E0811101C089
:1025600010E01093D501811106C00E9493030E94D0
:1025700090030E948D038BE089831A8340E250E030
:10258000BE016F5F7F4F82E00E943A1A50CE8FEFFC
:102590000E94B7084CCEC9BCD9BC09B400FEFDCF1F
:1025A0008091D8008F7D8093D8008091E000826078
:1025B0008093E0008091E00081FDFCCF0E945719DC
:1025C00043CE80E008959091980292FF10C041E0C0
:1025D000282F2471243009F040E031E0282F2871A1
:1025E000283009F030E0431711F02CE0822793FFE8
:1025F00010C041E0282F2471243109F040E031E07F
:10260000282F2871283109F030E0431711F02CE011
:1026100082273091990230FF10C051E0282F21719C
:10262000213009F050E041E0282F2871283009F0CE
:1026300040E0541711F029E0822731FF10C041E03B
:10264000282F2171213109F040E031E0282F287135
:10265000283109F030E0431711F029E0822794FD7A
:10266000877E08958238910569F1B0F48133910530
:1026700009F475C048F48932910509F467C08A32BB
:10268000910509F471C008958533910509F459C085
:1026900089339105B9F00895833E910589F138F4A5
:1026A000803E9105D1F0823E910529F10895863E44
:1026B0009105C9F1873E9105D9F1843E910509F054
:1026C0006CC027C02091980220FD57C021FD55C045
:1026D0002091990223FD5BC008958091980280FDAE
:1026E00048C08091990280FF48C08091980284FD83
:1026F00046C083EE51C08091980282FF3CC0F5CF66
:102700008091980282FD37C08091990280FD35C08A
:10271000ECCF8091990281FF36C08091980284FDB0
:102720002EC087EE39C08091980283FF2AC0F5CF72
:102730008091980283FD25C08091990281FD23C07C
:10274000ECCF8091980285FD22C01FC08091980235
:1027500085FD1BC08091990283FF19C00AC080913A
:10276000980286FD16C017C08091980286FD13C09E
:1027700010C089E311C082EE0FC080EE0DC080E072
:102780000BC086EE09C084EE07C085E305C089E270
:1027900003C08AE201C081E390E008959091420273
:1027A00080911902892B909118029923E1F0892BCD
:1027B00090910001992341F09091980297FF04C0F5
:1027C0009EE124E732E003C096E02CE632E0F90116
:1027D00020E0915028F031913323D9F32F5FF9CFC6
:1027E0002111109218020895209116029091DD0196
:1027F00057E02917A9F030E0529FF001539FF00DE8
:102800001124E252FE4F7181761306C07081781355
:1028100003C07581741306C02F5F3F4F2770E9CF47
:1028200080E0089581E008957E30B0F46630A0F431
:102830008230A0F494E5899FF001112486E0789F0E
:10284000E00DF11D1124E60FF11DEE0FFF1FEC57F7
:10285000FC4F85919491089580E001C081E090E063
:1028600008951F93CF93DF930E943213EC01C1159B
:1028700080E5D807E8F5C11590E4D90708F0A8C0AD
:10288000C03ED10530F5CD3CD10508F094C0C83A22
:10289000D10578F4C53AD10508F083C0C130D1051F
:1028A00009F47CC008F4F2C0C430D10508F0F1C0CE
:1028B000EDC0C33CD10508F0E9C0C85AD0E0CC0F48
:1028C000DD1FC35BDE4F0990D881C02DCE0194641B
:1028D000E1C0C11580E2D80708F0CBC0C11591E076
:1028E000D90708F06BC0C83ED10508F4D2C0CEC0ED
:1028F000C03682E5D80728F5C03492E5D90708F03C
:1029000079C0C03282E5D80708F06CC0C11592E5E5
:10291000D90708F481C04C2F4695469580E2489F20
:10292000A0011124C37021E030E0C90102C0880F6A
:10293000991FCA95E2F7EA01C82BD92BCE019D68F1
:10294000A9C0C03A82E5D807B8F48C2F8F71C0387F
:1029500092E5D90708F07BC08695869590E2899F1D
:1029600090011124C37081E090E002C0880F991F8C
:10297000CA95E2F79A6868C0C03C82E5D80708F4B7
:102980006DC0C03E92E5D90708F080C0CF71DD2749
:10299000DC2FCC27CE01806F906A7CC081E090E074
:1029A00079C0C55AD0E0C65BDE4F8881C82FD0E021
:1029B000CE0190646FC0CE0190656CC08D2F0E94D7
:1029C000E312182FCE0199270E9432131F715CC0A9
:1029D000CE0199270E943213CC27DF70D06A8C2B4E
:1029E0009D2B58C0CF71D0E0DC2FCC27CE01816F5A
:1029F000906A50C08C2F8F718695869590E2899F42
:102A000090011124C37081E090E002C0880F991FEB
:102A1000CA95E2F79C6818C08C2F8F710E94E31250
:102A200095E0D695C7959A95E1F7CF70D0E0DC2F69
:102A3000CC27282F30E084FF05C084E0220F331F0D
:102A40008A95E1F7D069CE01822B932B23C090E0C9
:102A5000D82FCC27CE01846F906A1CC08C2F8F7129
:102A60000E94E3128F7190E0D82FCC27CE019062A4
:102A700011C08D2F8F710E94E312182FCE0199275C
:102A80000E9432131F719062912B04C080E090E08D
:102A900001C0CE01DF91CF911F9108958095909153
:102AA0004202892380934202089580910001882385
:102AB00051F18091980287FF26C00E94CE13809327
:102AC000730240E250E06AE172E082E792E00E9425
:102AD000421E892BD9F180E2E2E7F2E0AAE1B2E0FE
:102AE00001900D928A95E1F7E0919402F0919502A0
:102AF000309761F186E0809372020480F581E02DC9
:102B000082E792E022C00E94CE1380936A0248E0DE
:102B100050E06AE372E08AE692E00E94421E892B4E
:102B2000A9F088E0EAE6F2E0AAE3B2E001900D92B3
:102B30008A95E1F7E0919402F0919502309731F097
:102B40000280F381E02D8AE692E009950895909144
:102B500017028095892380931702282F277069F424
:102B6000981759F09091990292FF07C08695869523
:102B700086950E9418191092170208959091990253
:102B800092FB222720F9281779F080FB92F9909385
:102B90009902609198027091990284E090E00E94FD
:102BA000261E82E00E94A71508958091160290913A
:102BB000DD01891719F08F5F8770FBCF0895CF93E0
:102BC000DF938091DC0182958F7009F04EC0809177
:102BD000DB01882309F449C0809116024091DD0190
:102BE0005091D7016091D601C091D801D091D901FF
:102BF00077E08417D1F190E0789FF001799FF00D94
:102C00001124DF01A252BE4F14962C911497222357
:102C100049F111962C911197251324C02C9126135C
:102C200021C015962C91159721111CC012962D913B
:102C30003C9113972C1B3D0B283C310598F4809157
:102C4000DC018F7080618093DC01EC51FE4F80814C
:102C50008F708061808386ED91E00E94ED030E9479
:102C6000D51503C001968770C4CFDF91CF91089529
:102C7000A4E1B0E0EEE3F6E10C94B31D8C0186E034
:102C8000F801DE011F9601900D928A95E1F7F80197
:102C90008481E58096ED892E91E0992E9091DA015C
:102CA000911120C0882309F463C1EE2009F442C0C9
:102CB000C8010E943419F82E8823E1F187E0F80159
:102CC000D40101900D928A95E1F78091DA0181306B
:102CD00031F48091D6019091D7010E949D180E94F5
:102CE000DF1548C1F801D080C180A280B380F09088
:102CF000DB012091D8013091D901FF2009F4E7C010
:102D0000A501421B530B483C510508F09DC0882388
:102D100009F430C18091DC01282F207F9091D701E8
:102D2000222361F09C1509F460C0C8010E94341987
:102D3000811163C0C8010E94ED031AC19C1113C028
:102D40009091D6019D110FC0E1100DC08F70806170
:102D50008093DC0186ED91E00E94ED038091DC011F
:102D6000F801868303C1E1103AC040E06C2D8D2D3F
:102D70000E94F41340E06C2D8D2D0E94F413E82E78
:102D80008111F4C0DF86C88A8F8598890E949D18BA
:102D9000292F22952F70243020F49F70223028F0A4
:102DA00009C02A50223080F014C0992349F08111C3
:102DB00007C013C0992321F0F8019681907F69F034
:102DC000805E883030F409C0803F38F0815F833006
:102DD00020F0C8010E94ED03EF2CFE2CCBC08091A7
:102DE000DC0181608093DC01C1C09091D6019D110E
:102DF0009CCFE1109ACFF80198C0EE2009F49ACF49
:102E00002091DC01822F82958F7090E002978CF0E8
:102E10008091D6019091D70199878887BB86AA8631
:102E20008091DA018C871D862E87CE0108960E943C
:102E3000ED0387E0F801A6EDB1E001900D928A95CF
:102E4000E1F70E94DF1594C09091DC01292F207FCB
:102E500051F486ED91E00E94ED0387E0F4011192B8
:102E60008A95E9F783C0882309F484C08091D7014B
:102E70008C110CC08091D6018D1108C0E11006C0E4
:102E8000F8019683C8010E94ED036AC0C8010E9440
:102E90003419882309F44ECFEE2009F44BCF20914A
:102EA000DC01822F82958F7090E0029714F280915E
:102EB000D6019091D7019A838983BC82AB8280919D
:102EC000DA018D831E822F83CE010196B0CFA21A24
:102ED000B30AF8ECAF16B10408F042C0882309F435
:102EE00047C0FE2CEE2009F425CF8091D7018C112C
:102EF00029C08091D6018D1125C09091DC0190FDF3
:102F000018C0892F82958F70282F30E02115310548
:102F100081F0F80196832F30310541F08F5F982FB3
:102F20009295907F86818F70892B8683C8010E943D
:102F3000ED0387E0F801A6EDB1E001900D928A95CE
:102F4000E1F718C0C8010E943419811172CF809135
:102F5000DC0181608093DC01C8010E94ED030AC09E
:102F600087E0F40111928A95E9F704C0F12C02C0C0
:102F7000FF24F3948F2D6496ECE00C94CF1DA6E013
:102F8000B0E0E5ECF7E10C94BB1D0E94F11A8C0156
:102F900080914302909144020817190781F0198229
:102FA0001A820E94F11A682F49815A81792F80E094
:102FB00090E00E94E402109344020093430226969C
:102FC000E4E00C94D71DEF92FF920F931F93CF93E1
:102FD000DF9380910B0190910C01892BD9F08091A6
:102FE00045028F5F80934502811114C00E94A3099E
:102FF00090E090930C0180930B01892B59F42FEFF3
:1030000083EC99E0215080409040E1F700C000003F
:103010000E947F1A01EA11E0C0E0D0E087E0E82ECC
:10302000ED0E8D2F0E94CC088E2D0E94CC088D2F86
:103030000E942D098F73F8019081891721F08083F8
:10304000FF24F39401C0F12C8E2D0E942D098F7363
:10305000F8019781891719F0878381E001C080E02A
:10306000F82ACF290E941809DF5F0F5F1F4FD73062
:10307000A9F6CC2359F081E0809348020E94F11A0E
:103080009093470280934602C0E022C0809148029C
:103090008823F1F080914602909147020E94E21A43
:1030A0004497B0F04EE050E061EA71E085EB91E0CA
:1030B0000E94421E892B51F08EE0E1EAF1E0A5EB7F
:1030C000B1E001900D928A95E1F7C1E010924802BB
:1030D0008C2FCDB7DEB7E6E00C94D51DCF92DF92F2
:1030E000FF920F931F93CF93DF936C010091B00178
:1030F0008091AF01082BC7E0D0E010E0C8010C2E92
:1031000002C0959587950A94E2F780FD04C0219747
:10311000A8F7F12C09C0FC2EB6018C2F0E941414C4
:103120000E943114019799F38F2DDF91CF911F9158
:103130000F91FF90DF90CF900895CF93DF93EC0134
:103140000E946E18BE010E9414140E943114DF9177
:10315000CF910895292F9E3078F5863068F590E05C
:1031600036E0239F800D911D1124682F677023E0A6
:10317000969587952A95E1F7FC01EE0FFF1FE80F62
:10318000F91FE75BFD4F40E050E080E0219130E027
:10319000062E02C0369527950A94E2F72170332750
:1031A000042E01C0220F0A94EAF7822B4F5F5F4F73
:1031B0004330510559F7089580E00895292F9E3036
:1031C00088F5863078F590E036E0239F800D911DDC
:1031D0001124282F277051E001C0550F2A95EAF7D6
:1031E00023E0969587952A95E1F7FC01EE0FFF1FE6
:1031F000E80FF91FE75BFD4F20E030E070E0408111
:10320000CB01022E02C0969587950A94E2F7817051
:10321000819584278523842781932F5F3F4F233017
:10322000310569F708950E949C038093B0010895C9
:1032300021E030E001C0220F8A95EAF720958091C5
:10324000B00182230E941319089521E030E001C0EB
:10325000220F8A95EAF78091B001822B0E94131900
:1032600008958093AF010895FC0124812223D9F0B1
:10327000808191810E949D1892959F70963079F07F
:1032800010F4925001C09A50923068F4803F69F077
:1032900018F4883E40F409C0843F29F406C0883EF3
:1032A00020F0813F11F080E0089581E008951092B0
:1032B000420280910001882341F08091980287FFAB
:1032C00004C08EE1E4E7F2E003C086E0ECE6F2E061
:1032D000DF011D928A95E9F780E090E00E94B01B23
:1032E00080E090E00E948B1B109219020E945515FD
:1032F0000895882321F00E944E150E9455150895C7
:10330000882339F090914202892B809342020E94D7
:1033100055150895882339F19CEF980F913A18F4C8
:103320000E94261B0DC090E2980F983060F48770C1
:1033300091E001C0990F8A95EAF7892F0E944E15F6
:103340000E94551508959BE5980F933028F480E06E
:1033500090E00E94B01B0895885A8B3120F480E0E1
:1033600090E00E948B1B0895CF93882309F465C0D9
:10337000C82F8CEF8C0F813AA0F580910001882333
:10338000E1F08091980287FF18C0EC2FE695E69552
:10339000E695F0E0EE58FD4F8281282F30E04C2F6B
:1033A000477081E090E002C0880F991F4A95E2F7CC
:1033B00082239323892B61F410C0ECE6F2E082E7CC
:1033C00092E02191C21721F08E179F07D1F705C017
:1033D0008C2F0E94261B0E9455158C2F0E94541B77
:1033E00010C080E28C0F883078F4C77081E090E0E4
:1033F00001C0880FCA95EAF790914202892B809309
:1034000042020E94551519C0EBE5EC0FE33040F481
:10341000F0E0E65BFE4F808190E00E94B01B0DC0A3
:10342000C85ACB3150F4EC2FF0E0EE0FFF1FE35BF6
:10343000FE4F808191810E948B1BCF9108951F9335
:10344000CF93DF93182FEB010E94B419209741F01E
:103450008FE99FE00197F1F700C000002197F6CFB8
:10346000812F0E948A19DF91CF911F910895809139
:103470008C0108950F931F93CF93DF938B01EA0183
:10348000909197019430A9F58F708093E9008FEFA8
:103490009091E800815095FD06C095ED9A95F1F761
:1034A00000008111F5CF8091E80085FF22C00E94C5
:1034B000290F811115C0209789F08091E80085FDC2
:1034C00006C08091E8008E778093E800F0CFF80185
:1034D00081918F018093F1002197EDCF90E001C0A1
:1034E000982F8091E8008E778093E80081E0911119
:1034F00001C080E0DF91CF911F910F9108959AE074
:1035000088E10FB6F894A895809360000FBE909361
:103510006000FFCFF89481E08093E00080E2809328
:10352000D800E9ECF0E010828FE19EE40197F1F71A
:1035300000C000001DBA109268001CBC10BE1FBA6B
:1035400010927A0010926E0010926F00109271002B
:10355000109272001082ECEBF0E0108214B817B8F1
:103560001AB81DB810BA108215B818B81BB81EB812
:1035700011BA0C94003F089578941F920F920FB6E1
:103580000F9211248F939F93AF93BF9380919B02CF
:1035900090919C02A0919D02B0919E020196A11D66
:1035A000B11D80939B0290939C02A0939D02B093C7
:1035B0009E02BF91AF919F918F910F900FBE0F9080
:1035C0001F9018959C014FB7F89480919B029091A1
:1035D0009C02A0919D02B0919E024FBF821B930B53
:1035E00008952FB7F89480919B0290919C02A0912E
:1035F0009D02B0919E022FBF08951F920F920FB6A9
:103600000F9211248F939F93AF93BF9380919A024F
:10361000811113C080919B0290919C02A0919D0208
:10362000B0919E024196A11DB11D80939B02909383
:103630009C02A0939D02B0939E02BF91AF919F9177
:103640008F910F900FBE0F901F90189590910001D1
:10365000992321F09091980297FD03C0EAE6F2E0E9
:103660001DC0E82FE695E695E695EE31E0F4F0E032
:10367000EE58FD4F877021E030E0A90102C0440FF1
:10368000551F8A95E2F7CA0180959281892382832A
:103690000895319652E0E037F50729F092818913B9
:1036A000F8CF1282F6CF0895909100019923D1F0BE
:1036B0009091980297FF16C0E82FE695E695E6955B
:1036C000EE3140F5F0E0EE58FD4F877021E030E03C
:1036D000A90102C0440F551F8A95E2F7CA019281E1
:1036E000892B16C0ACE6B2E0EFEF90E02D91821787
:1036F00089F0EF3F19F4211101C0E92F9F5F963047
:10370000A9F7EF3F39F00E2E000CFF0BE659FD4FE5
:10371000828308950895A3E0B0E0E1E9FBE10C9411
:10372000BD1D209196023091970228173907A1F00C
:103730009093970280939602E0919402F091950203
:10374000309751F024E029839B838A830084F1859C
:10375000E02DCE01019609952396E2E00C94D91D47
:10376000A3E0B0E0E6EBFBE10C94BD1D20919202DA
:103770003091930228173907A1F090939302809318
:103780009202E0919402F0919502309751F023E07B
:1037900029839B838A830084F185E02DCE010196E5
:1037A00009952396E2E00C94D91DE0919402F091E2
:1037B0009502309729F00190F081E02D0995089548
:1037C00080E00895EF92FF920F931F93CF93DF93C2
:1037D000182FEB011092BC0084EA8093BC000E9479
:1037E000F11A7C018091BC0087FD0DC0CF3F8FEFA7
:1037F000D807C1F3C7010E94E21AC817D90790F78A
:103800008EEF9FEF2DC08091B900887F883041F006
:103810008091B900887F803119F08FEF9FEF20C031
:103820001093BB0084E88093BC000E94F11A8C01C5
:103830008091BC0087FD0BC0CF3F8FEFD807C1F34D
:10384000C8010E94E21AC817D90790F7D9CF809112
:10385000B900887F883111F08034F9F680E090E07B
:10386000CDB7DEB7E6E00C94D51D1092B9008CE020
:103870008093B80008950F931F93CF93DF93EB01CC
:103880008093BB0084E88093BC000E94F11A8C01F5
:103890008091BC0087FD0DC0CF3F8FEFD807C1F3EB
:1038A000C8010E94E21AC817D90790F78EEF9FEF60
:1038B0000CC02091B900287F81E090E0283211F4FB
:1038C00080E090E0919581959109DF91CF911F91D2
:1038D0000F9108950F931F93CF93DF93EC0184EC26
:1038E0008093BC000E94F11A8C018091BC0087FD7E
:1038F0000DC0CF3F8FEFD807C1F3C8010E94E21A75
:10390000C817D90790F78EEF9FEF03C08091BB00D7
:1039100090E0DF91CF911F910F9108950F931F9326
:10392000CF93DF93EC0184E88093BC000E94F11AEE
:103930008C018091BC0087FD0DC0CF3F8FEFD80771
:10394000C1F3C8010E94E21AC817D90790F78EEF99
:103950009FEF03C08091BB0090E0DF91CF911F915A
:103960000F910895A0E0B0E0E8EBFCE10C94B11DEC
:10397000682E762E5A0169010E94F11A4C01043119
:10398000110558F00F3F8FEF180751F0C80164E19F
:1039900070E00E94991DEB0105C0C1E0D0E002C0BB
:1039A000C5E0D0E0BE01862D0E94E21B7C0197FF9E
:1039B0000BC00F3F8FEF1807A9F3C4010E94E21A52
:1039C0000817190778F713C0B801872D0E943B1C10
:1039D0007C01E501CA0CDB1CCC15DD0541F0F7FCD0
:1039E00006C0B80189910E943B1C7C01F5CF84E997
:1039F0008093BC00C701CDB7DEB7EEE00C94CD1DBF
:103A0000A0E0B0E0E6E0FDE10C94B11D782E662E5A
:103A10007A01E9010E94F11A5C010431110558F0A4
:103A20000F3F8FEF180759F0C80164E170E00E9462
:103A3000991D6B0107C0CC24C394D12C03C025E091
:103A4000C22ED12CB601872D0E94E21B4C0197FF9C
:103A50000BC00F3FEFEF1E07A9F3C5010E94E21A4A
:103A60000817190778F72BC0B801862D0E943B1C58
:103A70004C0197FD24C0F72DF1607F2E0E94F11AB2
:103A80005C010431110528F10F3F8FEF180729F170
:103A9000C80164E170E00E94991D6B01B601872D99
:103AA0000E94E21B4C0197FD1CC067012197C601D3
:103AB0008E199F098C179D0758F597FE1DC084E944
:103AC0008093BC00C4011816190674F580E090E0DC
:103AD0002BC0CC24C394D12CE1CF85E0C82ED12CAF
:103AE000DDCF0F3FEFEF1E07C9F2C5010E94E21ABA
:103AF0000817190798F6D9CFC8010E946A1C4C0113
:103B000097FD02C0F6018083FFEFCF1ADF0ACFCF07
:103B100097FCD5CFC8010E948E1C4C0197FDCFCFDA
:103B2000CE0DDF1D8883CBCFCDB7DEB7EEE00C9492
:103B3000CD1DAA1BBB1B51E107C0AA1FBB1FA617A7
:103B4000B70710F0A61BB70B881F991F5A95A9F746
:103B500080959095BC01CD0108952F923F924F9290
:103B60005F926F927F928F929F92AF92BF92CF920D
:103B7000DF92EF92FF920F931F93CF93DF93CDB716
:103B8000DEB7CA1BDB0B0FB6F894DEBF0FBECDBF8E
:103B900009942A88398848885F846E847D848C845F
:103BA0009B84AA84B984C884DF80EE80FD800C8168
:103BB0001B81AA81B981CE0FD11D0FB6F894DEBF4B
:103BC0000FBECDBFED010895F999FECF92BD81BD25
:103BD000F89A992780B50895A6E1B0E044E050E056
:103BE0000C942E1EA8E1B0E042E050E00C942E1E92
:103BF000DC01A40FB51F4150504048F0CB01840FA9
:103C0000951F2E910E94091E41505040D0F70895F3
:103C1000262FF999FECF92BD81BDF89A019700B485
:103C2000021639F01FBA20BD0FB6F894FA9AF99A25
:103C30000FBE08950396272F0E94091E0E94081E9A
:103C4000252F0E94091E242F0C94091E0196272F50
:103C50000E94091E0C94081EDC01CB01FC01F9999D
:103C6000FECF06C0F2BDE1BDF89A319600B40D92C8
:103C700041505040B8F70895EE0FFF1F0590F491A2
:103C8000E02D0994FB01DC0104C08D9101908019A5
:103C900021F441505040C8F7881B990B0895F894BF
:023CA000FFCF54
:103CA20001371AA90AA20A9A0A9B0A2000F0F1F423
:103CB200F5F6F70000000000000030313233929335
:103CC2006601010101010101000000000000004441
:103CD200226D73025102E401C902E20202036E6D17
:103CE2004C6E512F306733624E00818283E200E9CD
:103CF20000EA00B500B600B700CD008301CC008A0F
:103D020001920194012102230224022502260227A4
:103D1200022A02B300B4006F0070009F01CB019F22
:043D220002A00200F9
:00000001FF
